:020000040000FA
:1000000000000229831685012030831285008316A3
:100010009F010730831299000130BC00BD01BE0171
:100020008312851ABE0A3E08013A031D2628BC0A1F
:100030000319BD0A3C08073A031D0F283D08003A82
:10004000031D0F280130BC00BD010F288312851A43
:100050000F283C08013A031D42283D08003A031DC1
:100060004228BE018518BE0A3E09BE003E0C031C94
:100070008510031885149630AF000030D22120304F
:10008000831285003C08023A031D5C283D08003AB3
:10009000031D5C28BE0183120519BE0A3E09BE007D
:1000A0003E0C031C0511031805159630AF000030F7
:1000B000D2212030831285003C08033A031D80289A
:1000C0003D08003A031D8028BE0183120519BE0AAF
:1000D0003E09BE003E0C031C051103180515BE01A8
:1000E0008518BE0A3E09BE003E0C031C851003188D
:1000F00085149630AF000030D22120308312850065
:100100003C08043A031DA4283D08003A031DA42816
:10011000BE0183120518BE0A3E09BE003E0C031C38
:10012000051003180514BE010519BE0A3E09BE00DC
:100130003E0C031C0511031805159630AF00003066
:10014000D2212030831285003C08053A031DD228B5
:100150003D08003A031DD228BE0183120518BE0ACD
:100160003E09BE003E0C031C051003180514BE0119
:100170008518BE0A3E09BE003E0C031C85100318FC
:100180008514BE010519BE0A3E09BE003E0C031CC3
:100190000511031805159630AF000030D22120302C
:1001A000831285003C08063A031D0F283D08003ADB
:1001B000031D0F28BE0183120518BE0A3E09BE00AA
:1001C0003E0C031C051003180514BE010519BE0AD8
:1001D0003E09BE003E0C031C051103180515BE01A7
:1001E000051ABE0A3E09BE003E0C031C0512031888
:1001F00005169630AF000030D221203083128500E2
:100200000F280800F930AE000130AF008030000048
:100210000000B1210000000083120000B1002F088F
:10022000B000FB30B2000130B30083120000300890
:10023000B4003108B500FF30B007031CB103350826
:10024000340403199A2904303207B400B501B50DFE
:100250003308B5073408AE003508AF008030000021
:100260000000B1210000000083120000B7002F0839
:10027000B6003208AE003308AF0080300000000046
:10028000B1210000000083120000B900B5002F0862
:10029000B400B80002303207B400B501B50D330820
:1002A000B5073408AE003508AF008030000000000C
:1002B000B1210000000083120000B500BB002F0830
:1002C000BA00B400831200003608BA003708BB0039
:1002D000FF30B607031CB7033B083A040319932900
:1002E0003808AE003908AF008030000000009E21C1
:1002F0000000000083120000BA00340883120313C8
:100300008400831383120000351883173A08831280
:100310000313800083120000B80A0319B90AB40A53
:100320000319B50A6229063083120000B2070318C8
:10033000B30A15290000000002280800003A03193A
:10034000A529803A0319AC2900342E0884008313B0
:100350002F188317000808002F088A002E08820033
:100360000800003A0319B929803A0319C329AF01DB
:1003700000342E08840083132F1883170008AF0061
:10038000840A0008080000000000AC21AD00AE0F98
:10039000AF03AF0A00000000AC21AC002D08AF0095
:1003A0002C080800C0002F08BF00C101C20140088E
:1003B0004202031DDD293F0841020318F829FB30E2
:1003C000C3000430C400FF304307C500FF30C6003F
:1003D00044080318440FC6074508C3004608C40074
:1003E00046084504031DE329C10A0319C20AD72997
:1003F000080001340034013402344734003401343D
:040400000034003490
:02400E00973FDA
:00000001FF
