:1000000014C0AFC0E0C02CC02BC02AC029C028C07B
:1000100027C026C025C024C023C022C021C020C0C4
:100020001FC01EC01DC032C1FFC011241FBECFE5BE
:10003000D1E0DEBFCDBF10E0A0E6B0E0E6E3F4E043
:1000400002C005900D92A236B107D9F720E0A2E6D2
:10005000B0E001C01D92A537B207E1F749D1E9C16F
:10006000CFCF80916000982F90FB979597F980FDF6
:1000700003C09093600004C08EEC892780936000D9
:10008000809160000895CF93DF93C1E7D0E0E9DF6E
:100090008370899380E0C537D807C9F7DF91CF9186
:1000A0000895E1E7F0E081918130E9F080F082305D
:1000B00031F1833079F5C09A2FE78AE196E021503B
:1000C00080409040E1F700C00000C09823C0C79A6C
:1000D0002FE78AE196E0215080409040E1F700C090
:1000E0000000C79817C0C69A2FE78AE196E0215012
:1000F00080409040E1F700C00000C6980BC0C19A54
:100100002FE78AE196E0215080409040E1F700C05F
:100110000000C1982FE78AE196E02150804090408E
:10012000E1F700C0000020E0E537F20709F0BBCF9F
:10013000089590916400E92FF0E0EF58FF4F20817F
:1001400028130BC09F5F90936400943049F481E0C2
:100150008093670010926300089581E080936600A9
:1001600008951F920F920FB60F9211242F933F9371
:100170004F935F936F937F938F939F93AF93BF93AF
:10018000EF93FF9381E080936B00C79A80E0D1DF0B
:100190002FE78AE196E0215080409040E1F700C0CF
:1001A0000000C798FF91EF91BF91AF919F918F9100
:1001B0007F916F915F914F913F912F910F900FBE63
:1001C0000F901F9018951F920F920FB60F92112447
:1001D0002F933F934F935F936F937F938F939F934F
:1001E000AF93BF93EF93FF9381E080936A00C69A29
:1001F000A0DF2FE78AE196E0215080409040E1F7B0
:1002000000C00000C698FF91EF91BF91AF919F9100
:100210008F917F916F915F914F913F912F910F90AF
:100220000FBE0F901F9018951F920F920FB60F924E
:1002300011242F933F934F935F936F937F938F93EB
:100240009F93AF93BF93EF93FF9381E080936900F7
:10025000C19A82E06EDF2FE78AE196E0215080406C
:100260009040E1F700C00000C198FF91EF91BF916D
:10027000AF919F918F917F916F915F914F913F913E
:100280002F910F900FBE0F901F9018951F920F92F5
:100290000FB60F9211242F933F934F935F936F9359
:1002A0007F938F939F93AF93BF93EF93FF9381E0DF
:1002B00080936800C09A83E03CDF2FE78AE196E0F4
:1002C000215080409040E1F700C00000C098FF91AD
:1002D000EF91BF91AF919F918F917F916F915F91BE
:1002E0004F913F912F910F900FBE0F901F90189537
:1002F0008FEF87BB81B3837C81BBD09882B38C6343
:1003000082BBD89A8BB788608BBF8BB7886D8BBF49
:1003100085B78F6085BF2C9A209A7894D3EC11E032
:1003200080916700811149C080916200811145C0B0
:1003300080916B00811108C080916A00811104C016
:10034000809169008823A9F1D8BB2FE332E44FE004
:10035000215030404040E1F700C0000018BA8FE360
:1003600092E42FE0815090402040E1F700C000006F
:10037000D8BB3FE342E48FE0315040408040E1F79A
:1003800000C0000018BA9FE322E43FE091502040F3
:100390003040E1F700C0000010926B0010926A003C
:1003A0001092690010926800109367001092630029
:1003B00004C0809168008111C7CFC0916700C1302F
:1003C00061F480916300811108C05DDE6ADEC09334
:1003D0006300C0936200C093670080916600813023
:1003E00009F09ECF83E090E0D8BB4FE322E43FE0EA
:1003F000415020403040E1F700C0000018BA4FE300
:1004000022E43FE0415020403040E1F700C00000CE
:10041000019751F7109266001092670010926200E7
:1004200010926B0010926A0010926900109268009E
:0604300077CFF894FFCF26
:020436000100C3
:00000001FF
